{
  "contractName": "Store",
  "abi": [
    {
      "anonymous": false,
      "inputs": [
        {
          "indexed": false,
          "internalType": "string",
          "name": "oldValue",
          "type": "string"
        },
        {
          "indexed": false,
          "internalType": "string",
          "name": "data",
          "type": "string"
        }
      ],
      "name": "setData",
      "type": "event"
    },
    {
      "inputs": [],
      "name": "myString",
      "outputs": [
        {
          "internalType": "string",
          "name": "",
          "type": "string"
        }
      ],
      "stateMutability": "view",
      "type": "function",
      "constant": true
    },
    {
      "inputs": [
        {
          "internalType": "string",
          "name": "_data",
          "type": "string"
        }
      ],
      "name": "SetData",
      "outputs": [],
      "stateMutability": "nonpayable",
      "type": "function"
    }
  ],
  "bytecode": "0x60806040526040518060400160405280600481526020017f696e6974000000000000000000000000000000000000000000000000000000008152506000908051906020019061004f929190610062565b5034801561005c57600080fd5b50610166565b82805461006e90610105565b90600052602060002090601f01602090048101928261009057600085556100d7565b82601f106100a957805160ff19168380011785556100d7565b828001600101855582156100d7579182015b828111156100d65782518255916020019190600101906100bb565b5b5090506100e491906100e8565b5090565b5b808211156101015760008160009055506001016100e9565b5090565b6000600282049050600182168061011d57607f821691505b6020821081141561013157610130610137565b5b50919050565b7f4e487b7100000000000000000000000000000000000000000000000000000000600052602260045260246000fd5b61057f806101756000396000f3fe608060405234801561001057600080fd5b50600436106100365760003560e01c8063492bfa181461003b578063b7e8260c14610059575b600080fd5b610043610075565b604051610050919061036a565b60405180910390f35b610073600480360381019061006e91906102f0565b610103565b005b6000805461008290610477565b80601f01602080910402602001604051908101604052809291908181526020018280546100ae90610477565b80156100fb5780601f106100d0576101008083540402835291602001916100fb565b820191906000526020600020905b8154815290600101906020018083116100de57829003601f168201915b505050505081565b600080805461011190610477565b80601f016020809104026020016040519081016040528092919081815260200182805461013d90610477565b801561018a5780601f1061015f5761010080835404028352916020019161018a565b820191906000526020600020905b81548152906001019060200180831161016d57829003601f168201915b5050505050905081600090805190602001906101a79291906101e5565b507f8ca3c553e793a3f897ceec7272762d2786a6695b41fd17ff07fc5080bbd3925581836040516101d992919061038c565b60405180910390a15050565b8280546101f190610477565b90600052602060002090601f016020900481019282610213576000855561025a565b82601f1061022c57805160ff191683800117855561025a565b8280016001018555821561025a579182015b8281111561025957825182559160200191906001019061023e565b5b509050610267919061026b565b5090565b5b8082111561028457600081600090555060010161026c565b5090565b600061029b610296846103e8565b6103c3565b9050828152602081018484840111156102b357600080fd5b6102be848285610435565b509392505050565b600082601f8301126102d757600080fd5b81356102e7848260208601610288565b91505092915050565b60006020828403121561030257600080fd5b600082013567ffffffffffffffff81111561031c57600080fd5b610328848285016102c6565b91505092915050565b600061033c82610419565b6103468185610424565b9350610356818560208601610444565b61035f81610538565b840191505092915050565b600060208201905081810360008301526103848184610331565b905092915050565b600060408201905081810360008301526103a68185610331565b905081810360208301526103ba8184610331565b90509392505050565b60006103cd6103de565b90506103d982826104a9565b919050565b6000604051905090565b600067ffffffffffffffff82111561040357610402610509565b5b61040c82610538565b9050602081019050919050565b600081519050919050565b600082825260208201905092915050565b82818337600083830152505050565b60005b83811015610462578082015181840152602081019050610447565b83811115610471576000848401525b50505050565b6000600282049050600182168061048f57607f821691505b602082108114156104a3576104a26104da565b5b50919050565b6104b282610538565b810181811067ffffffffffffffff821117156104d1576104d0610509565b5b80604052505050565b7f4e487b7100000000000000000000000000000000000000000000000000000000600052602260045260246000fd5b7f4e487b7100000000000000000000000000000000000000000000000000000000600052604160045260246000fd5b6000601f19601f830116905091905056fea2646970667358221220308a9526e5b359f7cd60f82aba178ed5c519c595dbba086e717aaafe222f9e3d64736f6c63430008040033",
  "immutableReferences": {},
  "source": "// SPDX-License-Identifier: MIT\r\npragma solidity 0.8.4;\r\n\r\ncontract Store {\r\n  string public myString = \"init\";\r\n  event setData(string oldValue, string data);\r\n\r\n  function SetData(string memory _data) public {\r\n    string memory oldValue = myString;\r\n    myString = _data;\r\n    emit setData(oldValue, _data);\r\n  }\r\n}",
  "sourcePath": "C:/work_store/blockchain_work/DrizzleExplo/contracts/Store.sol",
  "compiler": {
    "name": "solc",
    "version": "0.8.4+commit.c7e474f2.Emscripten.clang"
  },
  "schemaVersion": "3.3.4",
  "updatedAt": "2021-05-05T08:28:36.210Z",
  "networkType": "ethereum",
  "devdoc": {
    "kind": "dev",
    "methods": {},
    "version": 1
  },
  "userdoc": {
    "kind": "user",
    "methods": {},
    "version": 1
  }
}